:020000040000FA
:100000000C947E000C94A6000C94A6000C94A60000
:100010000C94A6000C94A6000C94A6000C94A600C8
:100020000C94A6000C94A6000C94A6000C94A600B8
:100030000C94A6000C94A6000C94A6000C94A600A8
:100040000C94CD050C94A6000C943D060C94170658
:100050000C94A6000C94A6000C94A6000C94A60088
:100060000C94A6000C94A600028988083EABAAAAAC
:10007000AABE000000803F07634236B79BD8A71A8C
:1000800039685618AEBAAB558C1D3CB7CC5763BD1A
:100090006DEDFD753EF6177231BF000000803F0028
:1000A00000000000240027002A00000000002500B6
:1000B00028002B0000000000230026002900040473
:1000C0000404040404040202020202020303030300
:1000D00003030102040810204080010204081020DC
:1000E00001020408102000000008000201000003C3
:1000F00004070000000000000000B40611241FBE29
:10010000CFEFD8E0DEBFCDBF11E0A0E0B1E0E0EB83
:10011000FFE102C005900D92AC32B107D9F722E0A1
:10012000ACE2B1E001C01D92A632B207E1F710E0E7
:10013000CEE7D0E004C02197FE010E94D00FCD375A
:10014000D107C9F70E942B070C94D60F0C9400001E
:10015000833081F028F4813099F08230A9F008953D
:100160008730A9F08830C9F08430B1F480918000E4
:100170008F7D03C0809180008F77809380000895E9
:1001800084B58F7784BD089584B58F7DFBCF809132
:10019000B0008F778093B00008958091B0008F7D7C
:1001A000F9CFCF93DF93E8EEF0E08491E4EDF0E057
:1001B000D491E0ECF0E0C491CC23A1F081110E9435
:1001C000A800EC2FF0E0EE0FFF1FEC54FF4FA591BD
:1001D000B491EC91ED2381E090E009F480E0DF91AF
:1001E000CF91089580E090E0FACF1F93CF93DF93F3
:1001F000282F30E0F901EA51FF4F8491F901EE52C6
:10020000FF4FD491F901E254FF4FC491CC23A9F0E0
:10021000162F81110E94A800EC2FF0E0EE0FFF1FB7
:10022000E655FF4FA591B4918FB7F894EC91111159
:1002300008C0D095DE23DC938FBFDF91CF911F9153
:100240000895DE2BF8CFCF93DF9390E0FC01EE52C0
:10025000FF4F249182549F4FFC0184918823C9F061
:1002600090E0880F991FFC01E056FF4FA591B491D3
:10027000FC01E655FF4FC591D49161110DC09FB7A8
:10028000F8948C91209582238C938881282328834D
:100290009FBFDF91CF910895623051F49FB7F894DA
:1002A0003C91822F809583238C93E8812E2BEFCF76
:1002B0008FB7F894EC912E2B2C938FBFEACF1F931E
:1002C000CF93DF93182FEB0161E00E942301209769
:1002D00039F460E0812FDF91CF911F910C94F500EC
:1002E000CF3FD10511F461E0F5CFE12FF0E0EA5105
:1002F000FF4FE491E33031F140F4E130B1F0E2300E
:10030000E1F0C038D1057CF7E4CFE73029F1E830DF
:1003100059F1E430B1F780918000806280938000D1
:10032000D0938B00C0938A0004C084B5806884BDDC
:10033000C7BDDF91CF911F91089584B5806284BDC0
:10034000C8BDF7CF80918000806880938000D093F3
:100350008900C0938800EDCF8091B00080688093C1
:10036000B000C093B300E5CF8091B000806280936D
:10037000B000C093B400DDCF3FB7F8948091510135
:1003800090915201A0915301B091540126B5A89BC0
:1003900005C02F3F19F00196A11DB11D3FBFBA2F17
:1003A000A92F982F8827BC01CD01620F711D811DD7
:1003B000911D42E0660F771F881F991F4A95D1F75C
:1003C00008958F929F92AF92BF92CF92DF92EF9259
:1003D000FF924B015C010E94BC016B017C010E94F9
:1003E000BC016C197D098E099F09683E7340810527
:1003F0009105A8F321E0821A9108A108B10888EEBE
:10040000C80E83E0D81EE11CF11C81149104A104E4
:10041000B10429F7FF90EF90DF90CF90BF90AF909D
:100420009F908F9008952FB7F89460914D0170912F
:100430004E0180914F01909150012FBF0895AF92CE
:10044000BF92CF92DF92EF92FF920F931F93CF93C1
:10045000DF936C017B018B01040F151FEB015E0123
:10046000AE18BF08C017D10759F06991D601ED91B8
:10047000FC910190F081E02DC6010995892B79F757
:10048000C501DF91CF911F910F91FF90EF90DF9009
:10049000CF90BF90AF900895FC01538D448D252FD0
:1004A00030E0842F90E0821B930B541710F0CF960E
:1004B000089501970895FC01918D828D981761F040
:1004C000A28DAE0FBF2FB11D5D968C91928D9F5F57
:1004D0009F73928F90E008958FEF9FEF0895FC0136
:1004E000918D828D981731F0828DE80FF11D858DE9
:1004F00090E008958FEF9FEF0895FC01918D228D7C
:10050000892F90E0805C9F4F821B91098F73992700
:10051000089585E591E00E947D0221E0892B09F490
:1005200020E0822F089580E090E0892B29F00E943E
:10053000890281110C9400000895FC01A48DA80F7C
:10054000B92FB11DA35ABF4F2C91848D90E0019615
:100550008F739927848FA689B7892C93A089B18935
:100560008C91837080648C93938D848D981306C0D6
:100570000288F389E02D80818F7D80830895EF923A
:10058000FF920F931F93CF93DF93EC0181E0888F4D
:100590009B8D8C8D98131AC0E889F989808185FF1D
:1005A00015C09FB7F894EE89FF896083E889F989BF
:1005B00080818370806480839FBF81E090E0DF91C1
:1005C000CF911F910F91FF90EF900895F62E0B8D14
:1005D00010E00F5F1F4F0F731127E02E8C8D8E11CF
:1005E0000CC00FB607FCFACFE889F989808185FF36
:1005F000F5CFCE010E949D02F1CFEB8DEC0FFD2FC8
:10060000F11DE35AFF4FF0829FB7F8940B8FEA89F0
:10061000FB8980818062CFCFCF93DF93EC01888DFF
:100620008823B9F0AA89BB89E889F9898C9185FD6D
:1006300003C0808186FD0DC00FB607FCF7CF8C91FB
:1006400085FFF2CF808185FFEDCFCE010E949D0214
:10065000E9CFDF91CF9108950F931F93CF93DF934D
:100660008C01EB0118161906FCF461E083E00E948E
:10067000F50060E084E00E94F500B80185E00E948A
:100680005F011C161D064CF561E08BE00E94F50031
:1006900060E08CE00E94F500BE0186E0DF91CF9122
:1006A0001F910F910C945F0160E083E0011511052B
:1006B00059F00E94F50061E084E00E94F500662791
:1006C0007727601B710BDACF0E94F50060E084E0B1
:1006D0000E94F50070E060E0D1CF60E08BE02097F1
:1006E00059F00E94F50061E08CE00E94F500662759
:1006F00077276C1B7D0BD1CF0E94F50060E08CE06A
:100700000E94F50070E060E0C8CFFC01019000207D
:10071000E9F73197AF01481B590BBC0185E591E022
:100720000C941F028F929F92AF92BF920F931F93D0
:10073000CF93DF93CDB7DEB7A1970FB6F894DEBFA6
:100740000FBECDBF19A2423008F44AE08E010F5D02
:100750001F4F842E912CB12CA12CA50194010E9435
:10076000AE0FE62FB901CA01EA30F4F4E05DD8011A
:10077000EE938D01232B242B252B79F790E080E03D
:10078000109719F0CD010E948503A1960FB6F89439
:10079000DEBF0FBECDBFDF91CF911F910F91BF90F4
:1007A000AF909F908F900895E95CE1CF4F925F9258
:1007B0006F927F928F929F92AF92BF92CF92DF9271
:1007C000EF92FF920F931F93CF936B017C01742ED6
:1007D000AC019B010E94B00E882399F08AE191E060
:1007E000CF911F910F91FF90EF90DF90CF90BF902E
:1007F000AF909F908F907F906F905F904F900C94F0
:10080000850346015701E894B7F82FEF3FEF4FE714
:100810005FE7C501B4010E94B00E81110DC02FEF3A
:100820003FEF4FE75FE7C501B4010E94AB0C18161C
:100830001CF48EE191E0D4CF2FEF3FEF4FE75FE460
:10084000C701B6010E940A0E18161CF482E291E05C
:10085000C7CF2FEF3FEF4FE75FECC701B6010E9414
:10086000AB0C87FDF3CF20E030E0A901C701B60152
:100870000E94AB0C10E000E087FF0AC06DE285E546
:1008800091E00E94BF028C01F7FAF094F7F8F0941F
:10089000C0E060E070E080E09FE37C1641F020E083
:1008A00030E040E251E40E94B00CCF5FF6CFA701E8
:1008B00096010E943F0C2B013C010E94290D4B0127
:1008C0005C014AE00E9492037C01E00EF11ECC2301
:1008D000C1F1C501B4010E94580D9B01AC01C301D7
:1008E000B2010E943E0C4B015C016EE285E591E095
:1008F0000E94BF02E80EF91EC15018F120E030E05E
:1009000040E251E4C501B4010E940F0E2B013C01ED
:100910000E94290D4B01B12CA12C4AE0C501B40164
:100920000E949203E80EF91EC501B4010E94580D01
:100930009B01AC01C301B2010E943E0C4B015C0162
:10094000DBCFC701CF911F910F91FF90EF90DF9008
:10095000CF90BF90AF909F908F907F906F905F905F
:100960004F9008954F925F926F927F92AF92BF9295
:10097000CF92DF92EF92FF920F931F93CF93DF936B
:10098000CDB7DEB760970FB6F894DEBF0FBECDBF10
:1009900029833A834B835C83380129A13AA14BA177
:1009A0005CA12D833E834F8358872DA13EA14FA18B
:1009B00058A529873A874B875C8729A53AA54BA577
:1009C0005CA52D873E874F87588B0DA51EA542E05D
:1009D0000E94D60386E291E00E94850342E069818D
:1009E0007A818B819C810E94D60386E291E00E94ED
:1009F000850342E0C301B7010E94D60386E291E07D
:100A00000E94850342E0C601B5010E94D60386E23A
:100A100091E00E94850342E06D817E818F819885FF
:100A20000E94D60386E291E00E94850342E0698538
:100A30007A858B859C850E94D60386E291E00E9490
:100A4000850342E06D857E858F8598890E94D60357
:100A500086E291E00E948503B801110F880B990B83
:100A60004AE00E94920388E291E060960FB6F89403
:100A7000DEBF0FBECDBFDF91CF911F910F91FF90D1
:100A8000EF90DF90CF90BF90AF907F906F905F908E
:100A90004F900C948503CF92DF92EF92FF920F93C9
:100AA0001F93CF93DF9360E08EE00E94F5008FE00C
:100AB00090E00197F1F761E08EE00E94F500C3E25B
:100AC000D0E0CE010197F1F760E08EE00E94F500E2
:100AD0002197F1F7E1EEF0E06491EDECF0E0E491C4
:100AE000F0E0EE0FFF1FEC54FF4F8591949100E46E
:100AF0001FE120E030E0462F0E946F06611571056E
:100B000081059105E9F16F5F7F4F8F4F9F4F9F7078
:100B1000611571058105910599F10E945A0D28E230
:100B20003EE74CE05DE30E940F0E20E030E040E045
:100B30005FE30E940F0E6B017C0120E030E040E09B
:100B400050E40E94AB0C87FD22C020E030E040EF73
:100B500052E4C701B6010E940A0E181634F4C12CE3
:100B6000D12C20EFE22E22E4F22EC701B601DF9154
:100B7000CF911F910F91FF90EF90DF90CF9008954C
:100B8000C12CD12C90EAE92E92E4F92EEECFC12CA3
:100B9000D12CE12C80E4F82EE8CF1F920F920FB6F3
:100BA0000F9211242F933F938F939F93AF93BF93F3
:100BB00080914D0190914E01A0914F01B091500153
:100BC00030914C0123E0230F2D3758F50196A11DDC
:100BD000B11D20934C0180934D0190934E01A09341
:100BE0004F01B09350018091510190915201A09119
:100BF0005301B09154010196A11DB11D8093510183
:100C000090935201A0935301B0935401BF91AF91BF
:100C10009F918F913F912F910F900FBE0F901F903A
:100C2000189526E8230F0296A11DB11DD2CF1F9261
:100C30000F920FB60F9211242F933F934F935F9310
:100C40006F937F938F939F93AF93BF93EF93FF9394
:100C500085E591E00E949D02FF91EF91BF91AF91D8
:100C60009F918F917F916F915F914F913F912F91C4
:100C70000F900FBE0F901F9018951F920F920FB6F6
:100C80000F9211242F938F939F93EF93FF93E091F3
:100C90006501F09166018081E0916B01F0916C013A
:100CA00082FD1BC0908180916E018F5F8F732091B8
:100CB0006F01821741F0E0916E01F0E0EB5AFE4FB8
:100CC000958F80936E01FF91EF919F918F912F915E
:100CD0000F900FBE0F901F9018958081F4CFCF9288
:100CE000DF92EF92FF920F931F93E82FF92F05C029
:100CF000015011092109310961F19081962394175E
:100D0000B9F305C0015011092109310911F1908190
:100D100096239413F7CFC12CD12CE12CF12C0AC0CF
:100D20008FEFC81AD80AE80AF80A0C151D052E0517
:100D30003F0579F080818623841791F36C2D7D2DFA
:100D40008E2D9F2D1F910F91FF90EF90DF90CF90F0
:100D5000089560E070E080E090E01F910F91FF90B7
:100D6000EF90DF90CF900895E5E5F1E013821282D5
:100D700088EE93E0A0E0B0E084839583A683B783F8
:100D80008CE091E09183808385EC90E09587848767
:100D900084EC90E09787868780EC90E0918B808B45
:100DA00081EC90E0938B828B82EC90E0958B848B2E
:100DB00086EC90E0978B868B118E128E138E148E9C
:100DC000E2EFF1E080E090E0A0E8B0E4808391837E
:100DD000A283B3838DEC9CECACE4BEE38483958367
:100DE000A683B78380E090E0A0E0BFE3808791878F
:100DF000A287B3878DEC9CECACE4BDE38487958738
:100E0000A687B78789E29CE5AFE0BDE3808B918B35
:100E1000A28BB38B148A158A168A178A108E118EAC
:100E2000128E138E148E158E168E178E10A211A28E
:100E300012A213A214A215A216A217A210A611A6FE
:100E400012A613A614A615A616A617A610AA11AACE
:100E500012AA13AA0895CF93DF93CDB7DEB7619797
:100E60000FB6F894DEBF0FBECDBF789484B5826014
:100E700084BD84B5816084BD85B5826085BD85B53E
:100E8000816085BD80916E00816080936E001092BC
:100E90008100809181008260809381008091810037
:100EA00081608093810080918000816080938000C8
:100EB0008091B10084608093B1008091B000816026
:100EC0008093B00080917A00846080937A00809152
:100ED0007A00826080937A0080917A0081608093AA
:100EE0007A0080917A00806880937A001092C10025
:100EF000E0916501F091660182E08083E0916101FB
:100F0000F09162011082E0916301F091640180E14F
:100F1000808310926D01E0916901F0916A0186E091
:100F20008083E0916701F091680180818061808316
:100F3000E0916701F0916801808188608083E09191
:100F40006701F0916801808180688083E09167018A
:100F5000F091680180818F7D808361E085E00E944F
:100F6000230161E086E00E94230161E083E00E94AA
:100F7000230161E084E00E94230161E08BE00E9494
:100F8000230161E08CE00E94230161E08EE00E9479
:100F9000230160E08FE00E94230162E082E00E9472
:100FA000230170E060E090E080E00E942C030E944A
:100FB0004B056093000170930101809302019093AF
:100FC00003016093040170930501809306019093DF
:100FD000070160933401709335018093360190933B
:100FE0003701609330017093310180933201909307
:100FF000330160932C0170932D0180932E01909307
:101000002F0164EF71E080E090E00E94E1010E9416
:101010004B05362E272E89839A83C0903001D090BD
:101020003101E0903201F0903301C601D701809385
:101030002C0190932D01A0932E01B0932F010091CC
:10104000340110913501209136012F833091370101
:101050003B83C801D9018093300190933101A09363
:101060003201B0933301832D922DA981BA818093EF
:10107000340190933501A0933601B0933701980164
:101080004F815B81B601C7010E94AB0C18165CF062
:1010900098014F815B81632D722D89819A810E9415
:1010A0000A0E87FF3FC098014F815B81632D722D2F
:1010B00089819A810E94AB0C18164CF098014F81DF
:1010C0005B81B601C7010E940A0E87FF2BC0980101
:1010D0004F815B81B601C7010E940A0E87FD0AC0DD
:1010E0009601A701632D722D89819A810E940A0EB3
:1010F00087FF15C09601A701632D722D89819A8102
:101100000E94AB0C18160CF477C098014F815B81DC
:10111000B601C7010E94AB0C18160CF474C086010E
:10112000EF82FB82C0900401D0900501E09006019F
:10113000F09007019601A701B8018F819B810E9461
:101140003E0C9F7720E030E040EA50E40E940A0E17
:1011500018161CF48601EF82FB82C801AF81BB81A7
:101160008093040190930501A0930601B0930701B9
:1011700022ED32ED42ED5EE36091000170910101DC
:1011800080910201909103010E940F0E6B017C017E
:1011900027E936E946E15FE3B8018F819B810E9430
:1011A0000F0E9B01AC01C701B6010E943F0C2B0141
:1011B0003C01409200015092010160920201709244
:1011C000030180914A0190914B018230910509F40D
:1011D000E6C000F5009789F1019709F473C040E07B
:1011E00050E0452B09F413CF0E948902882309F4AB
:1011F0000ECF0E9400000BCF032D122D49814F838B
:101200005A815B838FCF032D122D89818F839A8121
:101210009B8388CF8330910509F417C30497F9F6AF
:1012200070E060E090E080E00E942C0368E873E1E9
:1012300080E090E00E94E101D2CF0E94D100892B92
:1012400071F662E370E080E090E00E94E1010E94AC
:10125000D100892B21F620E030E040EA51E4C301BF
:10126000B2010E943E0C6B017C0120E030E040EEB8
:1012700050E40E94AB0C87FDDBC2C0924601D092C5
:101280004701E0924801F092490120E030E040E857
:1012900050E460914601709147018091480190911E
:1012A00049010E943F0C6093420170934301809377
:1012B000440190934501A1E0B0E0B0934B01A093AD
:1012C0004A018DCF0E94130200913E0110913F010F
:1012D0002091400130914101601B710B820B930BF7
:1012E000623371058105910508F452C00E94130212
:1012F00060933E0170933F018093400190934101C0
:10130000B0914601BB83209147012F831091480182
:10131000009149010E9413020E94580D20E030E024
:101320004AE754E40E94B00C1F921F920F931F9340
:101330003F813F934B814F931F921F921F921F92A9
:101340001F921F921F921F92A12CB12C6501830145
:101350007201232D322D49815A810E94B2040FB6A9
:10136000F894DEBF0FBECDBF209142013091430102
:101370004091440150914501C301B2010E94AB0C60
:10138000181634F0A2E0B0E0B0934B01A0934A01EC
:101390006CE870E08CE890E00E942C0320CF0E9463
:1013A000130200913E0110913F01209140013091C4
:1013B0004101601B710B820B930B62337105810538
:1013C000910508F40CCF0E94130260933E017093C4
:1013D0003F018093400190934101B0914601BC8749
:1013E000209147012D87309148013E874091490166
:1013F0004F87409206025092070260920802709254
:1014000009028090FE019090FF01A0900002B09030
:101410000102209102023091030240910402509196
:101420000502C501B4010E943F0C9B01AC01C5013E
:10143000B4010E94B00C6B017C01AC019B0160E027
:1014400070E080E89FE30E943E0C6F837887898775
:101450009A8720910A0230910B0240910C02509120
:101460000D020E940F0E6B837C838D839E83A701E8
:101470009601C301B2010E940F0E9B01AC016B816A
:101480007C818D819E810E943F0C9B01AC01209349
:101490000A0230930B0240930C0250930D02BC855C
:1014A000AD85FE85EF856B2F7A2F8F2F9E2F0E94A3
:1014B0003E0C6B837C838D839E8360930E027093BE
:1014C0000F02809310029093110220911A02309122
:1014D0001B0240911C0250911D020E943E0CA5016E
:1014E00094010E94B00CA70196010E940F0E6B019F
:1014F0007C0120911202309113024091140250910C
:1015000015026F81788589859A850E940F0E9B014F
:10151000AC01C701B6010E943F0C6F837B878C0131
:10152000472F862F942FA02FB12F809312029093D4
:101530001302A0931402B093150280931E0290939D
:101540001F02A0932002B09321022091F601309156
:10155000F7014091F8015091F9016B817C818D81F7
:101560009E810E940F0EBF81AB852B2F3A2F402FFB
:10157000512F0E943F0CC62EF72EE82ED92E862F13
:101580009F2DAE2DBD2D8093220290932302A09318
:101590002402B09325028093160290931702A09321
:1015A0001802B09319022091FA013091FB01409189
:1015B000FC015091FD016C2D7F2D8E2D9D2D0E94E3
:1015C000B00C0E947C0E9B01AC018091F2019091C5
:1015D000F301A091F401B091F501BC01CD01905847
:1015E0000E940F0E2B813C814D815E8120931A0257
:1015F00030931B0240931C0250931D0220E030E008
:1016000040E85EE30E940F0E4B015C0120E030E0F9
:1016100040E85FEB0E94AB0C87FDA0C020E030E00B
:1016200040E85FE3C501B4010E940A0E18160CF4ED
:101630009CC020E030E040E85FE3C501B4010E94B7
:101640003F0C20E030E04CE053E40E940F0E20E01D
:1016500030E040E05FE30E940F0E4B015C0120E0B0
:1016600030E0A9010E94AB0C87FD86C020E030E08D
:101670004CE053E4C501B4010E940A0E18160CF4A4
:101680007EC0C501B4010E94220D798B688B8889C8
:10169000998901978737910520F488E790E0998B25
:1016A000888B68897989CB010E942C030E941302E0
:1016B0000E94580D20E030E04AE754E40E94B00C4C
:1016C0001F92A1E0AF93BF85BF932E852F933D85D9
:1016D0003F934C854F93DF92EF92FF92CF921F93EF
:1016E0000F935B855F93AF81AF93AB80BC80CD8060
:1016F000DE8083017201232D322D49815A810E949F
:10170000B204209146013091470140914801509127
:101710004901C301B2010E943E0C6B017C010FB66E
:10172000F894DEBF0FBECDBF20E030E0A9010E94DB
:101730000A0E18164CF520E030E040E050E4C701F6
:10174000B6010E94AB0C18164CF510923A0110929B
:101750003B0110923C0110923D0141CD812C912C16
:1017600090E8A92E9FEBB92E64CF812C912C80E8B4
:10177000A82E8FE3B82E5DCF198A188A88CF4CE83F
:1017800050E0598B488B83CF20E030E040E050ECB4
:10179000C701B6010E940A0E87FDD7CF4889598933
:1017A0004937510594F6C0903A01D0903B01E09042
:1017B0003C01F0903D01C114D104E104F10459F45D
:1017C0000E94130260933A0170933B0180933C01A5
:1017D00090933D0104CD0E9413026C197D098E097E
:1017E0009F09683C71058105910508F4F8CC70E00B
:1017F00060E090E080E00E942C038091380190919D
:1018000039010196909339018093380110923A0181
:1018100010923B0110923C0110923D0102970CF492
:101820001ACD83E090E090934B0180934A01D7CC8E
:1018300080E090E0A0EEB0E48093460190934701F1
:10184000A0934801B093490120CD64E670E08CE993
:101850009FEF0E942C036AE872E080E090E00E9413
:10186000E10170E060E090E080E00E942C0324E061
:1018700030E030934B0120934A01B1CC5058BB2744
:10188000AA270E94560C0C94D00D0E94C20D38F06D
:101890000E94C90D20F039F49F3F19F426F40C94EE
:1018A000BF0D0EF4E095E7FB0C94B90DE92F0E94F3
:1018B000E10D58F3BA17620773078407950720F004
:1018C00079F4A6F50C94030E0EF4E0950B2EBA2FC6
:1018D000A02D0B01B90190010C01CA01A001112436
:1018E000FF27591B99F0593F50F4503E68F11A16E2
:1018F000F040A22F232F342F4427585FF3CF469573
:1019000037952795A795F0405395C9F77EF41F1694
:10191000BA0B620B730B840BBAF09150A1F0FF0F5E
:10192000BB1F661F771F881FC2F70EC0BA0F621F4A
:10193000731F841F48F4879577956795B795F7953A
:101940009E3F08F0B0CF9395880F08F09927EE0FCF
:101950009795879508950E94950D08F481E0089564
:101960000E94C40C0C94D00D0E94C90D58F00E9426
:10197000C20D40F029F45F3F29F00C94B90D5111CC
:101980000C94040E0C94BF0D0E94E10D68F3992392
:10199000B1F3552391F3951B550BBB27AA2762176B
:1019A0007307840738F09F5F5F4F220F331F441F78
:1019B000AA1FA9F335D00E2E3AF0E0E832D09150AC
:1019C0005040E695001CCAF72BD0FE2F29D0660F99
:1019D000771F881FBB1F261737074807AB07B0E8DC
:1019E00009F0BB0B802DBF01FF2793585F4F3AF0E2
:1019F0009E3F510578F00C94B90D0C94040E5F3F96
:101A0000E4F3983ED4F3869577956795B795F79567
:101A10009F5FC9F7880F911D9695879597F908954F
:101A2000E1E0660F771F881FBB1F621773078407EB
:101A3000BA0720F0621B730B840BBA0BEE1F88F7FA
:101A4000E09508950E94290D6894B1110C94040E3C
:101A500008950E94E90D88F09F5798F0B92F9927B3
:101A6000B751B0F0E1F0660F771F881F991F1AF089
:101A7000BA95C9F714C0B13091F00E94030EB1E0DD
:101A800008950C94030E672F782F8827B85F39F0DC
:101A9000B93FCCF3869577956795B395D9F73EF422
:101AA00090958095709561957F4F8F4F9F4F0895CA
:101AB000E89409C097FB3EF49095809570956195E8
:101AC0007F4F8F4F9F4F9923A9F0F92F96E9BB279E
:101AD0009395F695879577956795B795F111F8CF1A
:101AE000FAF4BB0F11F460FF1BC06F5F7F4F8F4F85
:101AF0009F4F16C0882311F096E911C0772321F07B
:101B00009EE8872F762F05C0662371F096E8862F12
:101B100070E060E02AF09A95660F771F881FDAF769
:101B2000880F9695879597F90895990F0008550F96
:101B3000AA0BE0E8FEEF16161706E807F907C0F053
:101B400012161306E407F50798F0621B730B840B5B
:101B5000950B39F40A2661F0232B242B252B21F435
:101B600008950A2609F4A140A6958FEF811D811DD5
:101B7000089597F99F6780E870E060E008959FEF0F
:101B800080EC089500240A94161617061806090614
:101B9000089500240A9412161306140605060895E3
:101BA000092E0394000C11F4882352F0BB0F40F46B
:101BB000BF2B11F460FF04C06F5F7F4F8F4F9F4FAB
:101BC000089557FD9058440F551F59F05F3F71F02D
:101BD0004795880F97FB991F61F09F3F79F0879594
:101BE0000895121613061406551FF2CF4695F1DF1D
:101BF00008C0161617061806991FF1CF86957105AD
:101C0000610508940895E894BB2766277727CB01E0
:101C100097F908950E94950D08F48FEF08950E949A
:101C2000220E0C94D00D0E94C20D38F00E94C90DF6
:101C300020F0952311F00C94B90D0C94BF0D1124D4
:101C40000C94040E0E94E10D70F3959FC1F3950F63
:101C500050E0551F629FF001729FBB27F00DB11D30
:101C6000639FAA27F00DB11DAA1F649F6627B00DC0
:101C7000A11D661F829F2227B00DA11D621F739FA9
:101C8000B00DA11D621F839FA00D611D221F749FB7
:101C90003327A00D611D231F849F600D211D822FFE
:101CA000762F6A2F11249F5750409AF0F1F0882325
:101CB0004AF0EE0FFF1FBB1F661F771F881F915052
:101CC0005040A9F79E3F510580F00C94B90D0C943B
:101CD000040E5F3FE4F3983ED4F3869577956795BD
:101CE000B795F795E7959F5FC1F7FE2B880F911D7C
:101CF0009695879597F908959F939F77FEE3803196
:101D00009F0728F4E8E6F0E00E94160F25C09068CF
:101D100041E050E00E94360F0E94BD0E9F938F93CA
:101D20007F936F9320E030E040E85FE30E943F0C38
:101D30002F913F914F915F919F938F937F936F93DB
:101D400060E070E080E89FE30E943E0C2F913F919D
:101D50004F915F910E94B00C0F9007FC905808952E
:101D60000E94950D880B990B089529F416F00C9498
:101D7000B90D0C94030E0C94BF0D0E94E90DA8F34D
:101D80009638A0F707F80F92E8942BE33AEA48EB6D
:101D90005FE70E94250E0F920F920F924DB75EB72C
:101DA0000F920E946C0FE7E7F0E00E94EF0E4F9158
:101DB0005F91EF91FF91E595EE1FFF1F49F0FE57F0
:101DC000E0684427EE0F441FFA95E1F74195550B63
:101DD0000E94360F0F9007FE0C942A0F0895DF9390
:101DE000CF931F930F93FF92EF92DF927B018C01B1
:101DF000689406C0DA2EEF010E94220EFE01E894DC
:101E0000A5912591359145915591A6F3EF010E9439
:101E1000560CFE019701A801DA9469F7DF90EF9064
:101E2000FF900F911F91CF91DF9108959F938F9312
:101E30007F936F93FF93EF939B01AC010E940F0E72
:101E4000EF91FF910E94EF0E2F913F914F915F9183
:101E50000C940F0E9B01AC0160E070E080E89FE302
:101E60000C94B00C0C94B90D0C94A00F0E94E90DC9
:101E7000D8F39923C9F3940F511DA3F39150504007
:101E800094F059F0882332F0660F771F881F915025
:101E90005040C1F79E3F51052CF7880F911D969534
:101EA000879597F908955F3FACF0983E9CF0BB276B
:101EB000869577956795B79508F4B1609395C1F7C6
:101EC000BB0F58F711F460FFE8CF6F5F7F4F8F4F64
:101ED0009F4FE3CF0C94040EFA01DC01AA0FBB1F45
:101EE0009B01AC01BF5728F42227332744275078A1
:101EF00020C0B75190F4AB2F002446953795279515
:101F0000011CA395D2F3002071F0220F331F441F50
:101F1000B395DAF30ED00C943E0C61307105A0E855
:101F20008A07B94630F49B01AC01662777278827DA
:101F30009078309621F02083318342835383089533
:101F40009F3F31F0915020F4879577956795B7952D
:101F5000880F911D9695879597F90895A1E21A2EFD
:101F6000AA1BBB1BFD010DC0AA1FBB1FEE1FFF1F3D
:101F7000A217B307E407F50720F0A21BB30BE40B8D
:101F8000F50B661F771F881F991F1A9469F76095D4
:101F90007095809590959B01AC01BD01CF0108958E
:101FA000EE0FFF1F0590F491E02D0994F894FFCFF8
:101FB0000000A0420000A04200000000BF021F027B
:101FC0004C020C037D025B026F026E616E00696E53
:0C1FD00066006F7666002C000D0A000011
:107E0000112484B714BE81FFF0D085E080938100F7
:107E100082E08093C00088E18093C10086E0809377
:107E2000C20080E18093C4008EE0C9D0259A86E02C
:107E300020E33CEF91E0309385002093840096BBD3
:107E4000B09BFECF1D9AA8958150A9F7CC24DD24C4
:107E500088248394B5E0AB2EA1E19A2EF3E0BF2EE7
:107E6000A2D0813461F49FD0082FAFD0023811F036
:107E7000013811F484E001C083E08DD089C08234E0
:107E800011F484E103C0853419F485E0A6D080C0E4
:107E9000853579F488D0E82EFF2485D0082F10E0AE
:107EA000102F00270E291F29000F111F8ED06801E7
:107EB0006FC0863521F484E090D080E0DECF843638
:107EC00009F040C070D06FD0082F6DD080E0C81688
:107ED00080E7D80618F4F601B7BEE895C0E0D1E017
:107EE00062D089930C17E1F7F0E0CF16F0E7DF06D8
:107EF00018F0F601B7BEE89568D007B600FCFDCFD4
:107F0000A601A0E0B1E02C9130E011968C91119780
:107F100090E0982F8827822B932B1296FA010C0160
:107F200087BEE89511244E5F5F4FF1E0A038BF0790
:107F300051F7F601A7BEE89507B600FCFDCF97BE46
:107F4000E89526C08437B1F42ED02DD0F82E2BD052
:107F50003CD0F601EF2C8F010F5F1F4F84911BD097
:107F6000EA94F801C1F70894C11CD11CFA94CF0C13
:107F7000D11C0EC0853739F428D08EE10CD085E9AC
:107F80000AD08FE07ACF813511F488E018D01DD067
:107F900080E101D065CF982F8091C00085FFFCCF94
:107FA0009093C60008958091C00087FFFCCF809118
:107FB000C00084FD01C0A8958091C6000895E0E648
:107FC000F0E098E1908380830895EDDF803219F02E
:107FD00088E0F5DFFFCF84E1DECF1F93182FE3DFCA
:107FE0001150E9F7F2DF1F91089580E0E8DFEE27F6
:047FF000FF270994CA
:027FFE00040479
:00000001FF
