:100000000C947E000C94A6000C94A6000C94A60000
:100010000C94A6000C94A6000C94A6000C94A600C8
:100020000C94A6000C94A6000C94A6000C94A600B8
:100030000C94A6000C94A6000C94A6000C94A600A8
:100040000C9430060C94A6000C94A0060C947A062E
:100050000C94A6000C94A6000C94A6000C94A60088
:100060000C94A6000C94A600028988083EABAAAAAC
:10007000AABE000000803F07634236B79BD8A71A8C
:1000800039685618AEBAAB558C1D3CB7CC5763BD1A
:100090006DEDFD753EF6177231BF000000803F0028
:1000A00000000000240027002A00000000002500B6
:1000B00028002B0000000000230026002900040473
:1000C0000404040404040202020202020303030300
:1000D00003030102040810204080010204081020DC
:1000E00001020408102000000008000201000003C3
:1000F00004070000000000000000170711241FBEC5
:10010000CFEFD8E0DEBFCDBF11E0A0E0B1E0EEE37D
:10011000FFE102C005900D92A23BB107D9F722E0A2
:10012000A2EBB1E001C01D92A43AB207E1F710E0E2
:10013000CEE7D0E004C02197FE010E94970FCD3793
:10014000D107C9F70E948E070C949D0F0C940000F4
:10015000833081F028F4813099F08230A9F008953D
:100160008730A9F08830C9F08430B1F480918000E4
:100170008F7D03C0809180008F77809380000895E9
:1001800084B58F7784BD089584B58F7DFBCF809132
:10019000B0008F778093B00008958091B0008F7D7C
:1001A000F9CFCF93DF93E8EEF0E08491E4EDF0E057
:1001B000D491E0ECF0E0C491CC23A1F081110E9435
:1001C000A800EC2FF0E0EE0FFF1FEC54FF4FA591BD
:1001D000B491EC91ED2381E090E009F480E0DF91AF
:1001E000CF91089580E090E0FACF1F93CF93DF93F3
:1001F000282F30E0F901EA51FF4F8491F901EE52C6
:10020000FF4FD491F901E254FF4FC491CC23A9F0E0
:10021000162F81110E94A800EC2FF0E0EE0FFF1FB7
:10022000E655FF4FA591B4918FB7F894EC91111159
:1002300008C0D095DE23DC938FBFDF91CF911F9153
:100240000895DE2BF8CFCF93DF9390E0FC01EE52C0
:10025000FF4F249182549F4FFC0184918823C9F061
:1002600090E0880F991FFC01E056FF4FA591B491D3
:10027000FC01E655FF4FC591D49161110DC09FB7A8
:10028000F8948C91209582238C938881282328834D
:100290009FBFDF91CF910895623051F49FB7F894DA
:1002A0003C91822F809583238C93E8812E2BEFCF76
:1002B0008FB7F894EC912E2B2C938FBFEACF1F931E
:1002C000CF93DF93182FEB0161E00E942301209769
:1002D00039F460E0812FDF91CF911F910C94F500EC
:1002E000CF3FD10511F461E0F5CFE12FF0E0EA5105
:1002F000FF4FE491E33031F140F4E130B1F0E2300E
:10030000E1F0C038D1057CF7E4CFE73029F1E830DF
:1003100059F1E430B1F780918000806280938000D1
:10032000D0938B00C0938A0004C084B5806884BDDC
:10033000C7BDDF91CF911F91089584B5806284BDC0
:10034000C8BDF7CF80918000806880938000D093F3
:100350008900C0938800EDCF8091B00080688093C1
:10036000B000C093B300E5CF8091B000806280936D
:10037000B000C093B400DDCF3FB7F8948091CF01B7
:100380009091D001A091D101B091D20126B5A89B46
:1003900005C02F3F19F00196A11DB11D3FBFBA2F17
:1003A000A92F982F8827BC01CD01620F711D811DD7
:1003B000911D42E0660F771F881F991F4A95D1F75C
:1003C00008958F929F92AF92BF92CF92DF92EF9259
:1003D000FF924B015C010E94BC016B017C010E94F9
:1003E000BC016C197D098E099F09683E7340810527
:1003F0009105A8F321E0821A9108A108B10888EEBE
:10040000C80E83E0D81EE11CF11C81149104A104E4
:10041000B10429F7FF90EF90DF90CF90BF90AF909D
:100420009F908F9008952FB7F8946091CB017091B1
:10043000CC018091CD019091CE012FBF0895AF9254
:10044000BF92CF92DF92EF92FF920F931F93CF93C1
:10045000DF936C017B018B01040F151FEB015E0123
:10046000AE18BF08C017D10759F06991D601ED91B8
:10047000FC910190F081E02DC6010995892B79F757
:10048000C501DF91CF911F910F91FF90EF90DF9009
:10049000CF90BF90AF900895FC01538D448D252FD0
:1004A00030E0842F90E0821B930B541710F0CF960E
:1004B000089501970895FC01918D828D981761F040
:1004C000A28DAE0FBF2FB11D5D968C91928D9F5F57
:1004D0009F73928F90E008958FEF9FEF0895FC0136
:1004E000918D828D981731F0828DE80FF11D858DE9
:1004F00090E008958FEF9FEF0895FC01918D228D7C
:10050000892F90E0805C9F4F821B91098F73992700
:10051000089583ED91E00E947D0221E0892B09F48A
:1005200020E0822F089580E090E0892B29F00E943E
:10053000890281110C9400000895FC01A48DA80F7C
:10054000B92FB11DA35ABF4F2C91848D90E0019615
:100550008F739927848FA689B7892C93A089B18935
:100560008C91837080648C93938D848D981306C0D6
:100570000288F389E02D80818F7D80830895EF923A
:10058000FF920F931F93CF93DF93EC0181E0888F4D
:100590009B8D8C8D98131AC0E889F989808185FF1D
:1005A00015C09FB7F894EE89FF896083E889F989BF
:1005B00080818370806480839FBF81E090E0DF91C1
:1005C000CF911F910F91FF90EF900895F62E0B8D14
:1005D00010E00F5F1F4F0F731127E02E8C8D8E11CF
:1005E0000CC00FB607FCFACFE889F989808185FF36
:1005F000F5CFCE010E949D02F1CFEB8DEC0FFD2FC8
:10060000F11DE35AFF4FF0829FB7F8940B8FEA89F0
:10061000FB8980818062CFCFCF93DF93EC01888DFF
:100620008823B9F0AA89BB89E889F9898C9185FD6D
:1006300003C0808186FD0DC00FB607FCF7CF8C91FB
:1006400085FFF2CF808185FFEDCFCE010E949D0214
:10065000E9CFDF91CF9108950F931F93CF93DF934D
:100660008C01EB0118161906FCF461E083E00E948E
:10067000F50060E084E00E94F500B80185E00E948A
:100680005F011C161D064CF561E08BE00E94F50031
:1006900060E08CE00E94F500BE0186E0DF91CF9122
:1006A0001F910F910C945F0160E083E0011511052B
:1006B00059F00E94F50061E084E00E94F500662791
:1006C0007727601B710BDACF0E94F50060E084E0B1
:1006D0000E94F50070E060E0D1CF60E08BE02097F1
:1006E00059F00E94F50061E08CE00E94F500662759
:1006F00077276C1B7D0BD1CF0E94F50060E08CE06A
:100700000E94F50070E060E0C8CFFC01019000207D
:10071000E9F73197AF01481B590BBC0183ED91E01C
:100720000C941F028F929F92AF92BF920F931F93D0
:10073000CF93DF93CDB7DEB7A1970FB6F894DEBFA6
:100740000FBECDBF19A2423008F44AE08E010F5D02
:100750001F4F842E912CB12CA12CA50194010E9435
:10076000750FE62FB901CA01EA30F4F4E05DD80153
:10077000EE938D01232B242B252B79F790E080E03D
:10078000109719F0CD010E948503A1960FB6F89439
:10079000DEBF0FBECDBFDF91CF911F910F91BF90F4
:1007A000AF909F908F900895E95CE1CFCF92DF9258
:1007B000EF92FF92CF93DF936B017C016DE283EDAB
:1007C00091E00E94BF02EC0166277727CB016C19EC
:1007D0007D098E099F094AE00E9492038C0F9D1F9C
:1007E000DF91CF91FF90EF90DF90CF9008950C9420
:1007F00085034F925F926F927F928F929F92AF92FA
:10080000BF92CF92DF92EF92FF920F931F93CF93FD
:100810006B017C01742EAC019B010E94770E882332
:1008200099F086E291E0CF911F910F91FF90EF90A8
:10083000DF90CF90BF90AF909F908F907F906F9000
:100840005F904F900C94850346015701E894B7F8E8
:100850002FEF3FEF4FE75FE7C501B4010E94770E2E
:1008600081110DC02FEF3FEF4FE75FE7C501B401E6
:100870000E94720C18161CF48AE291E0D4CF2FEF7C
:100880003FEF4FE75FE4C701B6010E94D10D181694
:100890001CF48EE291E0C7CF2FEF3FEF4FE75FEC04
:1008A000C701B6010E94720C87FDF3CF20E030E053
:1008B000A901C701B6010E94720C10E000E087FF99
:1008C0000AC06DE283ED91E00E94BF028C01F7FA4D
:1008D000F094F7F8F094C0E060E070E080E09FE30F
:1008E0007C1641F020E030E040E251E40E94770CB9
:1008F000CF5FF6CFA70196010E94060C2B013C01A9
:100900000E94F00C4B015C014AE00E9492037C01C2
:10091000E00EF11ECC23C1F1C501B4010E941F0DF0
:100920009B01AC01C301B2010E94050C4B015C01AB
:100930006EE283ED91E00E94BF02E80EF91EC15005
:1009400018F120E030E040E251E4C501B4010E941A
:10095000D60D2B013C010E94F00C4B01B12CA12CB7
:100960004AE0C501B4010E949203E80EF91EC501D8
:10097000B4010E941F0D9B01AC01C301B2010E9492
:10098000050C4B015C01DBCFC701CF911F910F918B
:10099000FF90EF90DF90CF90BF90AF909F908F909F
:1009A0007F906F905F904F900895CF93DF9342E0D8
:1009B0000E94F903EC0182E391E00E9485038C0F11
:1009C0009D1FDF91CF9108958F929F92AF92BF921A
:1009D000CF92DF92EF92FF920F931F93CF93DF930B
:1009E00060E08EE00E94F50083E090E00197F1F76F
:1009F00061E08EE00E94F50083E290E00197F1F75C
:100A000060E08EE00E94F500E1EEF0E06491EDEC34
:100A1000F0E0E491F0E0EE0FFF1FEC54FF4F859102
:100A2000949100E315E720E030E0462F0E94D206C3
:100A3000611571058105910509F407C16F5F7F4F4D
:100A40008F4F9F4F9F70611571058105910509F4C6
:100A5000FCC00E94210D28E23EE74CE05DE30E94CD
:100A6000D60D20E030E040E05FE30E94D60D6B0140
:100A70007C0120E030E040E050E40E94720C87FDF1
:100A8000DEC020E030E040EF52E4B601C7010E9432
:100A9000D10D18160CF4D9C0809004019090050176
:100AA000A0900601B0900701C401D5018093000118
:100AB00090930101A0930201B093030100910801FA
:100AC00010910901D0910A01C0910B01C801AD2F0D
:100AD000BC2F8093040190930501A0930601B0936D
:100AE0000701C601D7018093080190930901A093E3
:100AF0000A01B0930B0198014D2F5C2FB401C50181
:100B00000E94720C18164CF09601A701B8018D2FA7
:100B10009C2F0E94720C1816C4F59601A701B8010B
:100B20008D2F9C2F0E94D10D87FD09C098014D2F5C
:100B30005C2FB401C5010E94D10D87FF26C098012A
:100B40004D2F5C2FB401C5010E94D10D87FD08C057
:100B50009601A701B401C5010E94720C181694F405
:100B60009601A701B401C5010E94D10D87FD74C093
:100B700098014D2F5C2FB401C5010E94720C18160C
:100B80000CF46AC08401DA2DCB2DC0901001D090F6
:100B90001101E0901201F09013019601A701B80134
:100BA0008D2F9C2F0E94050C9F7720E030E040EABB
:100BB00050E40E94D10D18161CF48601DE2DCF2DB5
:100BC000C801AD2FBC2F8093100190931101A09309
:100BD0001201B093130122ED32ED42ED5EE360911C
:100BE0000C0170910D0180910E0190910F010E94F6
:100BF000D60D6B017C0127E936E946E15FE3B801D8
:100C00008D2F9C2F0E94D60D9B01AC01C701B60110
:100C10000E94060C60930C0170930D0180930E01ED
:100C200090930F01DF91CF911F910F91FF90EF9063
:100C3000DF90CF90BF90AF909F908F900895C12C80
:100C4000D12CE12C20E4F22E27CFC12CD12C80EF27
:100C5000E82E92E4F92E20CF8601DE2DCF2D95CF00
:100C60001F920F920FB60F9211242F933F938F93E1
:100C70009F93AF93BF938091CB019091CC01A091B2
:100C8000CD01B091CE013091CA0123E0230F2D3761
:100C900058F50196A11DB11D2093CA018093CB0187
:100CA0009093CC01A093CD01B093CE018091CF0160
:100CB0009091D001A091D101B091D2010196A11DD6
:100CC000B11D8093CF019093D001A093D101B09337
:100CD000D201BF91AF919F918F913F912F910F9032
:100CE0000FBE0F901F90189526E8230F0296A11DA6
:100CF000B11DD2CF1F920F920FB60F9211242F93D6
:100D00003F934F935F936F937F938F939F93AF9393
:100D1000BF93EF93FF9383ED91E00E949D02FF91BB
:100D2000EF91BF91AF919F918F917F916F915F9163
:100D30004F913F912F910F900FBE0F901F901895DC
:100D40001F920F920FB60F9211242F938F939F93A0
:100D5000EF93FF93E091E301F091E4018081E09152
:100D6000E901F091EA0182FD1BC090818091EC01C4
:100D70008F5F8F732091ED01821741F0E091EC01BC
:100D8000F0E0ED52FE4F958F8093EC01FF91EF91D3
:100D90009F918F912F910F900FBE0F901F901895DC
:100DA0008081F4CFCF92DF92EF92FF920F931F9347
:100DB000E82FF92F05C0015011092109310961F10E
:100DC000908196239417B9F305C0015011092109A8
:100DD000310911F1908196239413F7CFC12CD12CB6
:100DE000E12CF12C0AC08FEFC81AD80AE80AF80AD9
:100DF0000C151D052E053F0579F08081862384178B
:100E000091F36C2D7D2D8E2D9F2D1F910F91FF90B5
:100E1000EF90DF90CF90089560E070E080E090E088
:100E20001F910F91FF90EF90DF90CF900895E3ED29
:100E3000F1E01382128288EE93E0A0E0B0E08483B8
:100E40009583A683B78388E191E09183808385ECC5
:100E500090E09587848784EC90E09787868780EC84
:100E600090E0918B808B81EC90E0938B828B82EC75
:100E700090E0958B848B86EC90E0978B868B118E1F
:100E8000128E138E148EE0E7F2E080E090E0A0E88E
:100E9000B0E480839183A283B3838DEC9CECACE4BB
:100EA000BEE384839583A683B78380E090E0A0E0CF
:100EB000BFE380879187A287B3878DEC9CECACE47D
:100EC000BDE384879587A687B7878AE097EDA3E27D
:100ED000BDE3808B918BA28BB38B148A158A168A03
:100EE000178A108E118E128E138E148E158E168EFA
:100EF000178E10A211A212A213A214A215A216A25A
:100F000017A210A611A612A613A614A615A616A619
:100F100017A610AA11AA12AA13AA0895CF93DF93B5
:100F2000CDB7DEB72C970FB6F894DEBF0FBECDBF9E
:100F3000789484B5826084BD84B5816084BD85B5B4
:100F4000826085BD85B5816085BD80916E008160C0
:100F500080936E0010928100809181008260809366
:100F60008100809181008160809381008091800068
:100F70008160809380008091B10084608093B10093
:100F80008091B00081608093B00080917A0084608D
:100F900080937A0080917A00826080937A008091B9
:100FA0007A00816080937A0080917A0080688093D3
:100FB0007A001092C100E091E301F091E40182E037
:100FC0008083E091DF01F091E0011082E091E10186
:100FD000F091E20180E180831092EB01E091E70162
:100FE000F091E80186E08083E091E501F091E6016F
:100FF000808180618083E091E501F091E60180814C
:1010000088608083E091E501F091E601808180684D
:101010008083E091E501F091E60180818F7D8083FE
:1010200061E085E00E94230161E086E00E942301E7
:1010300061E083E00E94230161E084E00E942301DB
:1010400061E08BE00E94230161E08CE00E942301BB
:1010500061E08EE00E94230160E08FE00E942301A6
:1010600062E082E00E94230170E060E090E080E0B6
:101070000E942C0364EF71E080E090E00E94E101A7
:1010800001E010E022E0222E312C8091C8019091E5
:10109000C9018230910509F4F0C080F4009709F18C
:1010A000019709F4A8C020E030E0232B71F30E94DF
:1010B0008902882351F30E940000E7CF8330910515
:1010C00009F48AC3049779F770E060E090E080E06B
:1010D0000E942C0368E873E180E090E00E94E10147
:1010E000E2CF0E94D100892BF1F662E370E080E04C
:1010F00090E00E94E1010E94D100892BA1F60E949C
:10110000E4046093C4017093C5018093C601909379
:10111000C70184E891E00E94F7036091C4017091D7
:10112000C5018091C6019091C7010E94D50420E0BD
:1011300030E040EA51E46091C4017091C5018091B2
:10114000C6019091C7010E94050C6B017C0120E053
:1011500030E040EE50E40E94720C87FD3FC0C09228
:10116000C001D092C101E092C201F092C30120E01F
:1011700030E040E850E46091C0017091C10180917D
:10118000C2019091C3010E94060C6093BC01709350
:10119000BD018093BE019093BF018AE591E00E945A
:1011A000F7036091C0017091C1018091C2019091DB
:1011B000C3010E94D50484EA91E00E94F703609184
:1011C000BC017091BD018091BE019091BF010E9450
:1011D000D5041093C9010093C80165CF80E090E069
:1011E000A0EEB0E48093C0019093C101A093C2012E
:1011F000B093C301BCCF0E941302C090B801D0903D
:10120000B901E090BA01F090BB016C197D098E091B
:101210009F09623371058105910540F10E94130217
:101220006093B8017093B9018093BA019093BB01A8
:101230000E94E4046B017C0185E391E00E94F703C6
:10124000C701B6010E94D5042091BC013091BD01B7
:101250004091BE015091BF01C701B6010E94720CBE
:10126000181624F03092C9012092C8016CE870E091
:101270008CE890E00E942C0316CF0E941302C090CD
:10128000B801D090B901E090BA01F090BB016C199F
:101290007D098E099F09623371058105910508F466
:1012A00002CF0E9413026093B8017093B90180933A
:1012B000BA019093BB010E94E4046B017C01809110
:1012C000C0019091C101A091C201B091C301898771
:1012D0009A87AB87BC87C0928402D0928502E09245
:1012E0008602F092870280917C0290917D02A0910B
:1012F0007E02B0917F0289839A83AB83BC83209165
:101300008002309181024091820250918302BC019F
:10131000CD010E94060C9B01AC0169817A818B8111
:101320009C810E94770C2B013C01AC019B0160E089
:1013300070E080E89FE30E94050C6D837E838F83BD
:101340009887209188023091890240918A025091B9
:101350008B020E94D60D4B015C01A3019201C701D3
:10136000B6010E94D60D9B01AC01C501B4010E94DB
:10137000060C4B015C018092880290928902A09237
:101380008A02B0928B02AC019B0169857A858B85BC
:101390009C850E94050C6B017C01C0928C02D0924E
:1013A0008D02E0928E02F0928F022091980230918D
:1013B000990240919A0250919B020E94050C29814A
:1013C0003A814B815C810E94770CA30192010E94BB
:1013D000D60D2B013C012091900230919102409159
:1013E0009202509193026D817E818F8198850E9437
:1013F000D60D9B01AC01C301B2010E94060C2B016A
:101400003C0140929002509291026092920270923E
:10141000930240929C0250929D0260929E027092B2
:101420009F02209174023091750240917602509192
:101430007702C701B6010E94D60DA30192010E9456
:10144000060C6093A0027093A1028093A202909375
:10145000A3026093940270939502809396029093F6
:101460009702209178023091790240917A0250914E
:101470007B020E94770C0E94430E9B01AC0180917D
:10148000700290917102A0917202B0917302BC013E
:10149000CD0190580E94D60DC0929802D092990228
:1014A000E0929A02F0929B0220E030E040E85EE396
:1014B0000E94D60D2B013C0120E030E040E85FEBBC
:1014C0000E94720C87FDB3C020E030E040E85FE38B
:1014D000C301B2010E94D10D18160CF4AFC020E078
:1014E00030E040E85FE3C301B2010E94060C20E057
:1014F00030E04CE053E40E94D60D20E030E040E0C4
:101500005FE30E94D60D2B013C0120E030E0A901F1
:101510000E94720C87FD99C020E030E04CE053E45B
:10152000C301B2010E94D10D18160CF491C0C30181
:10153000B2010E94E90C7A83698389819A810197BB
:101540008737910520F428E730E03A8329836981C1
:101550007A81CB010E942C0385E491E00E94F7037D
:1015600042E0C501B4010E94F90388E591E00E94C0
:10157000F7036091C0017091C1018091C201909107
:10158000C30142E00E94F90383E691E00E94F70361
:1015900042E0C701B6010E94F9038DE691E00E9486
:1015A000F703A981BA81BD01BB0F880B990B97FF87
:1015B00054C00E94D60385E791E00E94F703609132
:1015C000B6017091B701072E000C880B990B97FF9D
:1015D00048C00E94D60382E391E00E9485032091D7
:1015E000C0013091C1014091C2015091C301C501B8
:1015F000B4010E94050C6B017C0120E030E0A901E0
:101600000E94D10D18168CF520E030E040E050E447
:10161000C701B6010E94720C18168CF51092B20127
:101620001092B3011092B4011092B5013CCD412C3F
:10163000512C90E8692E9FEB792E51CF412C512CE3
:1016400080E8682E8FE3782E4ACF1A82198275CFF0
:10165000ACE8B0E0BA83A98370CF4AE00E9492035D
:10166000AACF4AE00E949203B6CF20E030E040E0EB
:1016700050ECC701B6010E94D10D87FDCFCF298163
:101680003A812937310554F6C090B201D090B301A8
:10169000E090B401F090B501C114D104E104F1046B
:1016A00059F40E9413026093B2017093B3018093C6
:1016B000B4019093B501F7CC0E9413026C197D0917
:1016C0008E099F09683C71058105910508F4EBCCF2
:1016D00070E060E090E080E00E942C038091B60111
:1016E0009091B70101969093B7018093B601109243
:1016F000B2011092B3011092B4011092B501029799
:101700003CF083E090E09093C9018093C801CBCC7A
:101710000E94E4046093C4017093C5018093C601E4
:101720009093C70120E030E040EA51E40E94050CAC
:101730006B017C0120E030E040EE50E40E94720C2E
:1017400087FD3DC0C092C001D092C101E092C201AC
:10175000F092C30120E030E040E850E46091C00125
:101760007091C1018091C2019091C3010E94060C49
:101770006093BC017093BD018093BE019093BF0143
:101780008FE791E00E94F7036091C4017091C50159
:101790008091C6019091C7010E94D50481E991E032
:1017A0000E94F7036091C0017091C1018091C20154
:1017B0009091C3010E94D5048FE991E0FECC80E0B6
:1017C00090E0A0EEB0E48093C0019093C101A0939B
:1017D000C201B093C301BECF64E670E08CE99FEF15
:1017E0000E942C036AE872E080E090E00E94E10130
:1017F00070E060E090E080E00E942C03A4E0B0E0A4
:10180000B093C901A093C8014ECC5058BB27AA275A
:101810000E941D0C0C94970D0E94890D38F00E94B7
:10182000900D20F039F49F3F19F426F40C94860DA6
:101830000EF4E095E7FB0C94800DE92F0E94A80DB3
:1018400058F3BA17620773078407950720F079F4F5
:10185000A6F50C94CA0D0EF4E0950B2EBA2FA02D10
:101860000B01B90190010C01CA01A0011124FF274D
:10187000591B99F0593F50F4503E68F11A16F04048
:10188000A22F232F342F4427585FF3CF4695379547
:101890002795A795F0405395C9F77EF41F16BA0B0C
:1018A000620B730B840BBAF09150A1F0FF0FBB1FBA
:1018B000661F771F881FC2F70EC0BA0F621F731F03
:1018C000841F48F4879577956795B795F7959E3F60
:1018D00008F0B0CF9395880F08F09927EE0F9795F1
:1018E000879508950E945C0D08F481E008950E9498
:1018F0008B0C0C94970D0E94900D58F00E94890D4E
:1019000040F029F45F3F29F00C94800D51110C94A4
:10191000CB0D0C94860D0E94A80D68F39923B1F3AA
:10192000552391F3951B550BBB27AA276217730705
:10193000840738F09F5F5F4F220F331F441FAA1F99
:10194000A9F335D00E2E3AF0E0E832D09150504055
:10195000E695001CCAF72BD0FE2F29D0660F771F03
:10196000881FBB1F261737074807AB07B0E809F0E9
:10197000BB0B802DBF01FF2793585F4F3AF09E3F6E
:10198000510578F00C94800D0C94CB0D5F3FE4F37F
:10199000983ED4F3869577956795B795F7959F5FB1
:1019A000C9F7880F911D9695879597F90895E1E0FD
:1019B000660F771F881FBB1F621773078407BA075C
:1019C00020F0621B730B840BBA0BEE1F88F7E095B7
:1019D00008950E94F00C6894B1110C94CB0D0895F9
:1019E0000E94B00D88F09F5798F0B92F9927B751F2
:1019F000B0F0E1F0660F771F881F991F1AF0BA95B3
:101A0000C9F714C0B13091F00E94CA0DB1E0089539
:101A10000C94CA0D672F782F8827B85F39F0B93F2B
:101A2000CCF3869577956795B395D9F73EF4909565
:101A30008095709561957F4F8F4F9F4F0895E894E3
:101A400009C097FB3EF490958095709561957F4F06
:101A50008F4F9F4F9923A9F0F92F96E9BB279395B4
:101A6000F695879577956795B795F111F8CFFAF4C4
:101A7000BB0F11F460FF1BC06F5F7F4F8F4F9F4FF5
:101A800016C0882311F096E911C0772321F09EE853
:101A9000872F762F05C0662371F096E8862F70E0B9
:101AA00060E02AF09A95660F771F881FDAF7880F93
:101AB0009695879597F90895990F0008550FAA0BE9
:101AC000E0E8FEEF16161706E807F907C0F0121651
:101AD0001306E407F50798F0621B730B840B950B54
:101AE00039F40A2661F0232B242B252B21F40895A9
:101AF0000A2609F4A140A6958FEF811D811D089546
:101B000097F99F6780E870E060E008959FEF80ECB0
:101B1000089500240A941616170618060906089553
:101B200000240A9412161306140605060895092EB9
:101B30000394000C11F4882352F0BB0F40F4BF2B28
:101B400011F460FF04C06F5F7F4F8F4F9F4F089568
:101B500057FD9058440F551F59F05F3F71F047955E
:101B6000880F97FB991F61F09F3F79F08795089543
:101B7000121613061406551FF2CF4695F1DF08C062
:101B8000161617061806991FF1CF8695710561057F
:101B900008940895E894BB2766277727CB0197F927
:101BA00008950E945C0D08F48FEF08950E94E90DDE
:101BB0000C94970D0E94890D38F00E94900D20F032
:101BC000952311F00C94800D0C94860D11240C9427
:101BD000CB0D0E94A80D70F3959FC1F3950F50E0B7
:101BE000551F629FF001729FBB27F00DB11D639FCF
:101BF000AA27F00DB11DAA1F649F6627B00DA11D75
:101C0000661F829F2227B00DA11D621F739FB00D1A
:101C1000A11D621F839FA00D611D221F749F33278A
:101C2000A00D611D231F849F600D211D822F762F23
:101C30006A2F11249F5750409AF0F1F088234AF000
:101C4000EE0FFF1FBB1F661F771F881F915050406C
:101C5000A9F79E3F510580F00C94800D0C94CB0D9C
:101C60005F3FE4F3983ED4F3869577956795B795F3
:101C7000F795E7959F5FC1F7FE2B880F911D96950D
:101C8000879597F908959F939F77FEE380319F078B
:101C900028F4E8E6F0E00E94DD0E25C0906841E0FF
:101CA00050E00E94FD0E0E94840E9F938F937F93BD
:101CB0006F9320E030E040E85FE30E94060C2F9134
:101CC0003F914F915F919F938F937F936F9360E0CC
:101CD00070E080E89FE30E94050C2F913F914F91A7
:101CE0005F910E94770C0F9007FC905808950E9416
:101CF0005C0D880B990B089529F416F00C94800D57
:101D00000C94CA0D0C94860D0E94B00DA8F3963861
:101D1000A0F707F80F92E8942BE33AEA48EB5FE765
:101D20000E94EC0D0F920F920F924DB75EB70F927B
:101D30000E94330FE7E7F0E00E94B60E4F915F91EB
:101D4000EF91FF91E595EE1FFF1F49F0FE57E06808
:101D50004427EE0F441FFA95E1F74195550B0E9479
:101D6000FD0E0F9007FE0C94F10E0895DF93CF93B4
:101D70001F930F93FF92EF92DF927B018C01689487
:101D800006C0DA2EEF010E94E90DFE01E894A5914C
:101D90002591359145915591A6F3EF010E941D0CB7
:101DA000FE019701A801DA9469F7DF90EF90FF90A8
:101DB0000F911F91CF91DF9108959F938F937F9300
:101DC0006F93FF93EF939B01AC010E94D60DEF91AF
:101DD000FF910E94B60E2F913F914F915F910C940D
:101DE000D60D9B01AC0160E070E080E89FE30C94AD
:101DF000770C0C94800D0C94670F0E94B00DD8F3F3
:101E00009923C9F3940F511DA3F39150504094F0BE
:101E100059F0882332F0660F771F881F9150504089
:101E2000C1F79E3F51052CF7880F911D9695879518
:101E300097F908955F3FACF0983E9CF0BB278695DC
:101E400077956795B79508F4B1609395C1F7BB0F87
:101E500058F711F460FFE8CF6F5F7F4F8F4F9F4FB0
:101E6000E3CF0C94CB0DFA01DC01AA0FBB1F9B0141
:101E7000AC01BF5728F4222733274427507820C0CD
:101E8000B75190F4AB2F0024469537952795011C48
:101E9000A395D2F3002071F0220F331F441FB39596
:101EA000DAF30ED00C94050C61307105A0E88A07B6
:101EB000B94630F49B01AC016627772788279078D4
:101EC000309621F0208331834283538308959F3FCE
:101ED00031F0915020F4879577956795B795880FE5
:101EE000911D9695879597F90895A1E21A2EAA1B40
:101EF000BB1BFD010DC0AA1FBB1FEE1FFF1FA217BA
:101F0000B307E407F50720F0A21BB30BE40BF50BB6
:101F1000661F771F881F991F1A9469F7609570953F
:101F2000809590959B01AC01BD01CF010895EE0F06
:0E1F3000FF1F0590F491E02D0994F894FFCF67
:101F3E000000C8420000C8420000C8420000C8426B
:101F4E000000C84200000000BF021F024C020C033A
:101F5E007D025B026F026E616E00696E66006F76C7
:101F6E0066000D0A00474F20535452202D2044691D
:101F7E0073743A2000444543454C202D2046696C2D
:101F8E0074446973743A20002C205461726765742E
:101F9E003A20002C204572726F723A20002C20508D
:101FAE00574D3A20002C2043656C6C733A20004E3E
:101FBE0065787420537461727420446973743A2086
:101FCE00004E657874205461726765743A20004E35
:101FDE0065787420446563656C2053746172743A3D
:021FEE002000D1
:00000001FF
